:100000000C9458000C9477000C9477000C947700B3
:100010000C9477000C9477000C9477000C94770084
:100020000C9477000C9477000C9477000C94770074
:100030000C9477000C94F0000C9477000C947700EB
:100040000C9477000C9477000C9477000C94770054
:100050000C9477000C9477000C9477000C94770044
:100060000C9477000C9477000C9477000C94770034
:100070000C9477000C9477000C9477000C94770024
:100080000C9477000C9477000C9477009A01A601E9
:10009000F9016402ED03E6025103ED03D0032B04E2
:1000A0000D0410041C042B04160422042B04280441
:1000B00011241FBECFEFD0E4DEBFCDBF11E0A0E022
:1000C000B1E0E2E1F9E000E00BBF02C007900D9261
:1000D000A231B107D9F721E0A2E1B1E001C01D9240
:1000E000AD31B207E1F70E9430040C9487040C9400
:1000F0000000CF93DF9300D01F92CDB7DEB7898386
:100100007B836A8389818A3031F48A819B81BC0137
:100110008DE00E94790080EC90E0FC018081882FC6
:1001200090E080729927892BB1F386EC90E02981C9
:10013000FC01208380E090E00F900F900F90DF9102
:10014000CF910895CF93DF93CDB7DEB781E890E0EC
:100150002BE0FC01208388E890E02DE730E0FC01F3
:10016000318320838FE690E022E0FC01208384E845
:1001700090E0FC011182108280910E0190910F019C
:10018000A0911001B091110180931301909314017B
:10019000A0931501B09316018FE590E02FE530E0B4
:1001A000F90120812068FC0120830000DF91CF91BC
:1001B0000895CF93DF93CDB7DEB781E890E0FC01DF
:1001C00010820000DF91CF910895CF93DF93CDB7D8
:1001D000DEB781E0809312010000DF91CF91089596
:1001E0001F920F9200905F000F92112400905B000D
:1001F0000F922F933F934F935F936F937F938F93C0
:100200009F93AF93BF93EF93FF93CF93DF93CDB7BC
:10021000DEB78091130190911401A0911501B09166
:1002200016010197A109B10980931301909314015C
:10023000A0931501B09316018091130190911401C0
:10024000A0911501B0911601892B8A2B8B2B91F46B
:100250000E94E50080910E0190910F01A091100184
:10026000B09111018093130190931401A093150193
:10027000B09316010000DF91CF91FF91EF91BF91F4
:10028000AF919F918F917F916F915F914F913F912E
:100290002F910F9000925B000F9000925F000F90E3
:1002A0001F901895CF93DF9300D000D0CDB7DEB765
:1002B00069837A838B839C8389819A81AB81BC819A
:1002C00080930E0190930F01A0931001B093110140
:1002D00080910E0190910F01A0911001B091110138
:1002E0008093130190931401A0931501B09316010C
:1002F00000000F900F900F900F90DF91CF91089515
:10030000CF93DF93CDB7DEB78091190190911A0199
:10031000CC01A0E0B0E040E050E028E030E0841BF9
:10032000950B2817390708F458C28A5B9F4FFC01C8
:100330000C947E0487E080931B011092170181E0EA
:1003400090E090931A018093190152C21092170104
:1003500080911801282F30E090911C0181E09923B1
:1003600009F080E0882F90E082239323892B89F085
:1003700082E090E090931A018093190180911B0113
:10038000893008F02CC280911B018F5F80931B0184
:1003900026C29091180181E0992309F080E0282F6E
:1003A00030E080911C01882F90E082239323892BD9
:1003B00089F085E090E090931A0180931901809173
:1003C0001B01882309F40BC280911B01815080938B
:1003D0001B0105C29091180180911C01892388237B
:1003E00009F4FDC188E090E090931A01809319010F
:1003F000F6C180911801282F30E090911C0181E016
:10040000992309F080E0882F90E0282339239091E8
:10041000170181E09A3008F080E0882F90E0822375
:100420009323892B39F082E090E090931A01809316
:100430001901D7C18091180191E0882309F090E05B
:1004400020911C0181E0222309F080E08923882388
:1004500039F081E090E090931A0180931901C1C1B5
:100460009091180180911C018923882349F088E02C
:1004700090E090931A018093190110921B01B1C171
:1004800080911801282F30E090911C0181E0992380
:1004900009F080E0882F90E02823392390911701FC
:1004A00081E09A3008F480E0882F90E08223932343
:1004B000892B09F496C183E090E090931A01809310
:1004C0001901109217018DC180911801282F30E079
:1004D00090911C0181E0992309F080E0882F90E041
:1004E00082239323892B09F44AC083E090E0909300
:1004F0001A018093190180911701853118F58091B7
:100500001B0131E0893008F030E0209117018DECBB
:10051000289F812D1124982F96959695892F880FC5
:10052000880F890F922F981B81E0992309F080E0B2
:100530008323882309F457C180911B018F5F809327
:100540001B0151C180911701853108F44CC1809184
:100550001B0191E0893008F090E080911701282F6D
:10056000217081E0222309F080E08923882309F4A7
:100570003AC180911B018F5F80931B0134C1809130
:10058000180191E0882309F090E020911C0181E09E
:10059000222309F080E08923882339F081E090E06C
:1005A00090931A01809319011EC1909118018091B6
:1005B0001C018923882309F416C188E090E09093F8
:1005C0001A018093190110921B010DC180911C0129
:1005D000282F30E09091180181E0992309F080E004
:1005E000882F90E0282339239091170181E09A30D9
:1005F00008F080E0882F90E082239323892B39F044
:1006000085E090E090931A0180931901EEC08091EB
:100610001C01282F30E09091180181E0992309F006
:1006200080E0882F90E0282339239091170181E002
:100630009A3008F480E0882F90E082239323892B5E
:1006400049F086E090E090931A018093190110928E
:100650001701CBC08091180191E0882309F090E048
:1006600020911C0181E0222309F080E08923882366
:1006700039F081E090E090931A0180931901B5C0A0
:100680009091180180911C018923882309F4ADC041
:1006900088E090E090931A018093190110921B0159
:1006A000A4C080911C01282F30E09091180181E0B6
:1006B000992309F080E0882F90E082239323892BEF
:1006C00009F44AC086E090E090931A0180931901E2
:1006D00080911701853118F580911B0131E0882345
:1006E00009F430E0209117018DEC289F812D112411
:1006F000982F96959695892F880F880F890F922F9E
:10070000981B81E0992309F080E08323882309F472
:100710006EC080911B01815080931B0168C0809145
:100720001701853108F463C080911B0191E0882393
:1007300009F490E080911701282F217081E0222395
:1007400009F080E08923882309F451C080911B01BE
:10075000815080931B014BC08091180191E0882348
:1007600009F090E020911C0181E0222309F080E053
:100770008923882339F081E090E090931A018093D7
:10078000190135C09091180180911C01892388239B
:1007900071F188E090E090931A018093190127C0CD
:1007A00080911C0191E0882309F090E020911801CC
:1007B00081E0222309F080E08923882339F081E059
:1007C00090E090931A018093190112C088E090E0A4
:1007D00090931A01809319010BC0000009C000001A
:1007E00007C0000005C0000003C0000001C00000F9
:1007F0008091190190911A01CC01A0E0B0E040E095
:1008000050E028E030E0841B950B2817390718F1D9
:10081000815B9F4FFC010C947E04109217011CC059
:10082000809117018F5F8093170116C08091170187
:100830008F5F8093170110C0809117018F5F8093A5
:1008400017010AC0809117018F5F8093170104C0C0
:1008500010921B0101C000000000DF91CF910895AC
:10086000CF93DF93CDB7DEB781E290E0FC01108239
:1008700082E290E02FEFFC01208384E290E02FEFF2
:10088000FC01208385E290E0FC01108264E670E0C8
:1008900080E090E00E9452010E94A20010921A0192
:1008A0001092190180E290E0FC018081882F90E095
:1008B0008170992721E0892B09F020E0822F809315
:1008C000180180E290E0FC018081882F90E0809503
:1008D000909595958795817080931C010E94800169
:1008E0000000809112018823E1F31092120185E249
:1008F00090E020911B01FC012083D4CFEE0FFF1F5D
:100900000024001C0BBE0790F691E02D0994F8948A
:02091000FFCF17
:100912000000000200000000790000000000010059
:020922000000D3
:00000001FF
